{
  "_format": "hh-sol-artifact-1",
  "contractName": "InvestmentClub",
  "sourceName": "contracts/InvestmentClub.sol",
  "abi": [
    {
      "inputs": [],
      "stateMutability": "nonpayable",
      "type": "constructor"
    },
    {
      "anonymous": false,
      "inputs": [
        {
          "indexed": true,
          "internalType": "uint256",
          "name": "clubId",
          "type": "uint256"
        },
        {
          "indexed": false,
          "internalType": "string",
          "name": "name",
          "type": "string"
        },
        {
          "indexed": false,
          "internalType": "string",
          "name": "CID",
          "type": "string"
        },
        {
          "indexed": true,
          "internalType": "address",
          "name": "creator",
          "type": "address"
        }
      ],
      "name": "ClubCreated",
      "type": "event"
    },
    {
      "anonymous": false,
      "inputs": [
        {
          "indexed": false,
          "internalType": "uint256",
          "name": "id",
          "type": "uint256"
        },
        {
          "indexed": false,
          "internalType": "string",
          "name": "name",
          "type": "string"
        },
        {
          "indexed": false,
          "internalType": "uint256",
          "name": "memberCounter",
          "type": "uint256"
        },
        {
          "indexed": false,
          "internalType": "uint256",
          "name": "proposalCounter",
          "type": "uint256"
        },
        {
          "indexed": false,
          "internalType": "uint256",
          "name": "pool",
          "type": "uint256"
        },
        {
          "indexed": false,
          "internalType": "string",
          "name": "CID",
          "type": "string"
        }
      ],
      "name": "ClubInfoEvent",
      "type": "event"
    },
    {
      "anonymous": false,
      "inputs": [
        {
          "indexed": true,
          "internalType": "uint256",
          "name": "clubId",
          "type": "uint256"
        },
        {
          "indexed": false,
          "internalType": "uint256",
          "name": "proposalId",
          "type": "uint256"
        },
        {
          "indexed": false,
          "internalType": "address",
          "name": "creator",
          "type": "address"
        },
        {
          "indexed": false,
          "internalType": "uint256",
          "name": "amount",
          "type": "uint256"
        },
        {
          "indexed": false,
          "internalType": "address",
          "name": "destination",
          "type": "address"
        },
        {
          "indexed": false,
          "internalType": "string",
          "name": "description",
          "type": "string"
        },
        {
          "indexed": false,
          "internalType": "string",
          "name": "Cid",
          "type": "string"
        }
      ],
      "name": "ProposalCreated",
      "type": "event"
    },
    {
      "anonymous": false,
      "inputs": [
        {
          "indexed": true,
          "internalType": "uint256",
          "name": "clubId",
          "type": "uint256"
        },
        {
          "indexed": true,
          "internalType": "uint256",
          "name": "proposalId",
          "type": "uint256"
        },
        {
          "indexed": true,
          "internalType": "address",
          "name": "voter",
          "type": "address"
        },
        {
          "indexed": false,
          "internalType": "bool",
          "name": "vote",
          "type": "bool"
        }
      ],
      "name": "ProposalVoted",
      "type": "event"
    },
    {
      "inputs": [
        {
          "internalType": "uint256",
          "name": "clubId",
          "type": "uint256"
        },
        {
          "internalType": "uint256",
          "name": "proposalId",
          "type": "uint256"
        }
      ],
      "name": "closeProposal",
      "outputs": [],
      "stateMutability": "nonpayable",
      "type": "function"
    },
    {
      "inputs": [
        {
          "internalType": "uint256",
          "name": "clubId",
          "type": "uint256"
        }
      ],
      "name": "contributeToClub",
      "outputs": [],
      "stateMutability": "payable",
      "type": "function"
    },
    {
      "inputs": [
        {
          "internalType": "string",
          "name": "name",
          "type": "string"
        },
        {
          "internalType": "string",
          "name": "Cid",
          "type": "string"
        }
      ],
      "name": "createClub",
      "outputs": [
        {
          "internalType": "uint256",
          "name": "",
          "type": "uint256"
        }
      ],
      "stateMutability": "nonpayable",
      "type": "function"
    },
    {
      "inputs": [
        {
          "internalType": "uint256",
          "name": "clubId",
          "type": "uint256"
        },
        {
          "internalType": "uint256",
          "name": "amount",
          "type": "uint256"
        },
        {
          "internalType": "address",
          "name": "destination",
          "type": "address"
        },
        {
          "internalType": "string",
          "name": "description",
          "type": "string"
        },
        {
          "internalType": "string",
          "name": "Cid",
          "type": "string"
        }
      ],
      "name": "createProposal",
      "outputs": [],
      "stateMutability": "nonpayable",
      "type": "function"
    },
    {
      "inputs": [
        {
          "internalType": "uint256",
          "name": "clubId",
          "type": "uint256"
        },
        {
          "internalType": "uint256",
          "name": "proposalId",
          "type": "uint256"
        }
      ],
      "name": "executeProposal",
      "outputs": [],
      "stateMutability": "payable",
      "type": "function"
    },
    {
      "inputs": [
        {
          "internalType": "address",
          "name": "userAddress",
          "type": "address"
        },
        {
          "internalType": "uint256",
          "name": "clubId",
          "type": "uint256"
        }
      ],
      "name": "getBalanceByClub",
      "outputs": [
        {
          "internalType": "uint256",
          "name": "",
          "type": "uint256"
        }
      ],
      "stateMutability": "view",
      "type": "function"
    },
    {
      "inputs": [
        {
          "internalType": "uint256",
          "name": "clubId",
          "type": "uint256"
        }
      ],
      "name": "getClubById",
      "outputs": [
        {
          "components": [
            {
              "internalType": "uint256",
              "name": "clubId",
              "type": "uint256"
            },
            {
              "internalType": "string",
              "name": "name",
              "type": "string"
            },
            {
              "internalType": "uint256",
              "name": "memberCount",
              "type": "uint256"
            },
            {
              "internalType": "uint256",
              "name": "proposalCount",
              "type": "uint256"
            },
            {
              "internalType": "uint256",
              "name": "pool",
              "type": "uint256"
            },
            {
              "internalType": "string",
              "name": "CID",
              "type": "string"
            }
          ],
          "internalType": "struct InvestmentClub.ClubInfo",
          "name": "",
          "type": "tuple"
        }
      ],
      "stateMutability": "view",
      "type": "function"
    },
    {
      "inputs": [],
      "name": "getMyClubs",
      "outputs": [
        {
          "components": [
            {
              "internalType": "uint256",
              "name": "clubId",
              "type": "uint256"
            },
            {
              "internalType": "string",
              "name": "name",
              "type": "string"
            },
            {
              "internalType": "uint256",
              "name": "memberCount",
              "type": "uint256"
            },
            {
              "internalType": "uint256",
              "name": "proposalCount",
              "type": "uint256"
            },
            {
              "internalType": "uint256",
              "name": "pool",
              "type": "uint256"
            },
            {
              "internalType": "string",
              "name": "CID",
              "type": "string"
            }
          ],
          "internalType": "struct InvestmentClub.ClubInfo[]",
          "name": "",
          "type": "tuple[]"
        }
      ],
      "stateMutability": "view",
      "type": "function"
    },
    {
      "inputs": [
        {
          "internalType": "uint256",
          "name": "clubId",
          "type": "uint256"
        },
        {
          "internalType": "uint256",
          "name": "proposalId",
          "type": "uint256"
        }
      ],
      "name": "getProposalById",
      "outputs": [
        {
          "components": [
            {
              "internalType": "uint256",
              "name": "id",
              "type": "uint256"
            },
            {
              "internalType": "address",
              "name": "creator",
              "type": "address"
            },
            {
              "internalType": "uint256",
              "name": "amount",
              "type": "uint256"
            },
            {
              "internalType": "address",
              "name": "destination",
              "type": "address"
            },
            {
              "internalType": "string",
              "name": "status",
              "type": "string"
            },
            {
              "internalType": "string",
              "name": "description",
              "type": "string"
            },
            {
              "internalType": "uint256",
              "name": "votesFor",
              "type": "uint256"
            },
            {
              "internalType": "uint256",
              "name": "votesAgainst",
              "type": "uint256"
            },
            {
              "internalType": "uint256",
              "name": "proposedAt",
              "type": "uint256"
            },
            {
              "internalType": "uint256",
              "name": "proposalExpireAt",
              "type": "uint256"
            },
            {
              "internalType": "string",
              "name": "Cid",
              "type": "string"
            }
          ],
          "internalType": "struct InvestmentClub.ProposalInfo",
          "name": "",
          "type": "tuple"
        }
      ],
      "stateMutability": "view",
      "type": "function"
    },
    {
      "inputs": [
        {
          "internalType": "uint256",
          "name": "clubId",
          "type": "uint256"
        }
      ],
      "name": "getProposalsByClub",
      "outputs": [
        {
          "components": [
            {
              "internalType": "uint256",
              "name": "id",
              "type": "uint256"
            },
            {
              "internalType": "address",
              "name": "creator",
              "type": "address"
            },
            {
              "internalType": "uint256",
              "name": "amount",
              "type": "uint256"
            },
            {
              "internalType": "address",
              "name": "destination",
              "type": "address"
            },
            {
              "internalType": "string",
              "name": "status",
              "type": "string"
            },
            {
              "internalType": "string",
              "name": "description",
              "type": "string"
            },
            {
              "internalType": "uint256",
              "name": "votesFor",
              "type": "uint256"
            },
            {
              "internalType": "uint256",
              "name": "votesAgainst",
              "type": "uint256"
            },
            {
              "internalType": "uint256",
              "name": "proposedAt",
              "type": "uint256"
            },
            {
              "internalType": "uint256",
              "name": "proposalExpireAt",
              "type": "uint256"
            },
            {
              "internalType": "string",
              "name": "Cid",
              "type": "string"
            }
          ],
          "internalType": "struct InvestmentClub.ProposalInfo[]",
          "name": "",
          "type": "tuple[]"
        }
      ],
      "stateMutability": "view",
      "type": "function"
    },
    {
      "inputs": [
        {
          "internalType": "address",
          "name": "sender",
          "type": "address"
        },
        {
          "internalType": "uint256",
          "name": "proposalId",
          "type": "uint256"
        },
        {
          "internalType": "uint256",
          "name": "clubId",
          "type": "uint256"
        }
      ],
      "name": "hasVoted",
      "outputs": [
        {
          "internalType": "bool",
          "name": "",
          "type": "bool"
        }
      ],
      "stateMutability": "view",
      "type": "function"
    },
    {
      "inputs": [
        {
          "internalType": "uint256",
          "name": "clubId",
          "type": "uint256"
        }
      ],
      "name": "isClubFull",
      "outputs": [
        {
          "internalType": "bool",
          "name": "",
          "type": "bool"
        }
      ],
      "stateMutability": "view",
      "type": "function"
    },
    {
      "inputs": [
        {
          "internalType": "uint256",
          "name": "clubId",
          "type": "uint256"
        }
      ],
      "name": "isClubIdExist",
      "outputs": [
        {
          "internalType": "bool",
          "name": "",
          "type": "bool"
        }
      ],
      "stateMutability": "view",
      "type": "function"
    },
    {
      "inputs": [
        {
          "internalType": "address",
          "name": "memberAddress",
          "type": "address"
        },
        {
          "internalType": "uint256",
          "name": "clubId",
          "type": "uint256"
        }
      ],
      "name": "isMemberOfClub",
      "outputs": [
        {
          "internalType": "bool",
          "name": "",
          "type": "bool"
        }
      ],
      "stateMutability": "view",
      "type": "function"
    },
    {
      "inputs": [
        {
          "internalType": "uint256",
          "name": "proposalId",
          "type": "uint256"
        },
        {
          "internalType": "uint256",
          "name": "clubId",
          "type": "uint256"
        }
      ],
      "name": "isProposalIdExist",
      "outputs": [
        {
          "internalType": "bool",
          "name": "",
          "type": "bool"
        }
      ],
      "stateMutability": "view",
      "type": "function"
    },
    {
      "inputs": [
        {
          "internalType": "uint256",
          "name": "clubId",
          "type": "uint256"
        },
        {
          "internalType": "uint256",
          "name": "proposalId",
          "type": "uint256"
        }
      ],
      "name": "isVotingOn",
      "outputs": [
        {
          "internalType": "bool",
          "name": "",
          "type": "bool"
        }
      ],
      "stateMutability": "view",
      "type": "function"
    },
    {
      "inputs": [
        {
          "internalType": "uint256",
          "name": "clubId",
          "type": "uint256"
        }
      ],
      "name": "joinClub",
      "outputs": [],
      "stateMutability": "nonpayable",
      "type": "function"
    },
    {
      "inputs": [
        {
          "internalType": "uint256",
          "name": "clubId",
          "type": "uint256"
        }
      ],
      "name": "leaveClub",
      "outputs": [],
      "stateMutability": "nonpayable",
      "type": "function"
    },
    {
      "inputs": [],
      "name": "listClubs",
      "outputs": [
        {
          "components": [
            {
              "internalType": "uint256",
              "name": "clubId",
              "type": "uint256"
            },
            {
              "internalType": "string",
              "name": "name",
              "type": "string"
            },
            {
              "internalType": "uint256",
              "name": "memberCount",
              "type": "uint256"
            },
            {
              "internalType": "uint256",
              "name": "proposalCount",
              "type": "uint256"
            },
            {
              "internalType": "uint256",
              "name": "pool",
              "type": "uint256"
            },
            {
              "internalType": "string",
              "name": "CID",
              "type": "string"
            }
          ],
          "internalType": "struct InvestmentClub.ClubInfo[]",
          "name": "",
          "type": "tuple[]"
        }
      ],
      "stateMutability": "view",
      "type": "function"
    },
    {
      "inputs": [
        {
          "internalType": "uint256",
          "name": "clubId",
          "type": "uint256"
        },
        {
          "internalType": "uint256",
          "name": "proposalId",
          "type": "uint256"
        },
        {
          "internalType": "bool",
          "name": "vote",
          "type": "bool"
        }
      ],
      "name": "voteOnProposal",
      "outputs": [],
      "stateMutability": "nonpayable",
      "type": "function"
    }
  ],
  "bytecode": "0x608060405234801561001057600080fd5b506000600181905550613f18806100286000396000f3fe60806040526004361061011f5760003560e01c80635ff847fb116100a0578063c3741fed11610064578063c3741fed14610415578063c467087814610452578063e15427421461048f578063e7613ea8146104b8578063eec8e0db146104e15761011f565b80635ff847fb1461030a5780636764fd4814610335578063890e24561461037257806389972a32146103af578063ab7ca348146103d85761011f565b806334fa3d83116100e757806334fa3d831461021357806335a1930f146102505780634d7f75c31461028d578063549710be146102b657806354a2e233146102e15761011f565b8063058694a9146101245780630ee294041461016157806314204fc61461019e5780631ab76712146101db578063288509b4146101f7575b600080fd5b34801561013057600080fd5b5061014b600480360381019061014691906127c1565b61051e565b6040516101589190612a96565b60405180910390f35b34801561016d57600080fd5b5061018860048036038101906101839190612ae4565b6108ce565b6040516101959190612b52565b60405180910390f35b3480156101aa57600080fd5b506101c560048036038101906101c09190612b6d565b61094d565b6040516101d29190612caa565b60405180910390f35b6101f560048036038101906101f09190612b6d565b610c9b565b005b610211600480360381019061020c91906127c1565b610fae565b005b34801561021f57600080fd5b5061023a60048036038101906102359190612ccc565b611118565b6040516102479190612b52565b60405180910390f35b34801561025c57600080fd5b5061027760048036038101906102729190612e41565b6111c7565b6040516102849190612ec8565b60405180910390f35b34801561029957600080fd5b506102b460048036038101906102af91906127c1565b611373565b005b3480156102c257600080fd5b506102cb6114ad565b6040516102d89190613035565b60405180910390f35b3480156102ed57600080fd5b5061030860048036038101906103039190613083565b6116e2565b005b34801561031657600080fd5b5061031f6119b0565b60405161032c9190613035565b60405180910390f35b34801561034157600080fd5b5061035c600480360381019061035791906127c1565b611bca565b6040516103699190612b52565b60405180910390f35b34801561037e57600080fd5b5061039960048036038101906103949190612ccc565b611bec565b6040516103a69190612ec8565b60405180910390f35b3480156103bb57600080fd5b506103d660048036038101906103d191906130d6565b611c57565b005b3480156103e457600080fd5b506103ff60048036038101906103fa9190612b6d565b611f20565b60405161040c9190612b52565b60405180910390f35b34801561042157600080fd5b5061043c600480360381019061043791906127c1565b611f5b565b6040516104499190613219565b60405180910390f35b34801561045e57600080fd5b50610479600480360381019061047491906127c1565b612124565b6040516104869190612b52565b60405180910390f35b34801561049b57600080fd5b506104b660048036038101906104b191906127c1565b612146565b005b3480156104c457600080fd5b506104df60048036038101906104da9190612b6d565b61231d565b005b3480156104ed57600080fd5b5061050860048036038101906105039190612b6d565b612554565b6040516105159190612b52565b60405180910390f35b606061052982611bca565b610568576040517f08c379a000000000000000000000000000000000000000000000000000000000815260040161055f90613298565b60405180910390fd5b600080600084815260200190815260200160002090506000816006015467ffffffffffffffff81111561059e5761059d612d16565b5b6040519080825280602002602001820160405280156105d757816020015b6105c4612618565b8152602001906001900390816105bc5790505b509050600080600190505b836006015481116108c25760008460050160008381526020019081526020016000209050604051806101600160405280826000015481526020018260010160009054906101000a900473ffffffffffffffffffffffffffffffffffffffff1673ffffffffffffffffffffffffffffffffffffffff168152602001826002015481526020018260030160009054906101000a900473ffffffffffffffffffffffffffffffffffffffff1673ffffffffffffffffffffffffffffffffffffffff1681526020018260040180546106b5906132e7565b80601f01602080910402602001604051908101604052809291908181526020018280546106e1906132e7565b801561072e5780601f106107035761010080835404028352916020019161072e565b820191906000526020600020905b81548152906001019060200180831161071157829003601f168201915b50505050508152602001826005018054610747906132e7565b80601f0160208091040260200160405190810160405280929190818152602001828054610773906132e7565b80156107c05780601f10610795576101008083540402835291602001916107c0565b820191906000526020600020905b8154815290600101906020018083116107a357829003601f168201915b505050505081526020018260060154815260200182600701548152602001826008015481526020018260090154815260200182600a018054610801906132e7565b80601f016020809104026020016040519081016040528092919081815260200182805461082d906132e7565b801561087a5780601f1061084f5761010080835404028352916020019161087a565b820191906000526020600020905b81548152906001019060200180831161085d57829003601f168201915b505050505081525084848151811061089557610894613319565b5b602002602001018190525082806108ab90613377565b9350505080806108ba90613377565b9150506105e2565b50819350505050919050565b60008060008381526020019081526020016000206005016000848152602001908152602001600020600b0160008573ffffffffffffffffffffffffffffffffffffffff1673ffffffffffffffffffffffffffffffffffffffff16815260200190815260200160002060009054906101000a900460ff1690509392505050565b610955612618565b61095e83611bca565b61099d576040517f08c379a00000000000000000000000000000000000000000000000000000000081526004016109949061340c565b60405180910390fd5b6109a78284612554565b6109e6576040517f08c379a00000000000000000000000000000000000000000000000000000000081526004016109dd90613478565b60405180910390fd5b6000806000858152602001908152602001600020600501600084815260200190815260200160002090506000604051806101600160405280836000015481526020018360010160009054906101000a900473ffffffffffffffffffffffffffffffffffffffff1673ffffffffffffffffffffffffffffffffffffffff168152602001836002015481526020018360030160009054906101000a900473ffffffffffffffffffffffffffffffffffffffff1673ffffffffffffffffffffffffffffffffffffffff168152602001836004018054610ac1906132e7565b80601f0160208091040260200160405190810160405280929190818152602001828054610aed906132e7565b8015610b3a5780601f10610b0f57610100808354040283529160200191610b3a565b820191906000526020600020905b815481529060010190602001808311610b1d57829003601f168201915b50505050508152602001836005018054610b53906132e7565b80601f0160208091040260200160405190810160405280929190818152602001828054610b7f906132e7565b8015610bcc5780601f10610ba157610100808354040283529160200191610bcc565b820191906000526020600020905b815481529060010190602001808311610baf57829003601f168201915b505050505081526020018360060154815260200183600701548152602001836008015481526020018360090154815260200183600a018054610c0d906132e7565b80601f0160208091040260200160405190810160405280929190818152602001828054610c39906132e7565b8015610c865780601f10610c5b57610100808354040283529160200191610c86565b820191906000526020600020905b815481529060010190602001808311610c6957829003601f168201915b50505050508152509050809250505092915050565b6000806000848152602001908152602001600020905060008160050160008481526020019081526020016000209050610cd384611bca565b610d12576040517f08c379a0000000000000000000000000000000000000000000000000000000008152600401610d099061340c565b60405180910390fd5b610d1c3385611118565b610d5b576040517f08c379a0000000000000000000000000000000000000000000000000000000008152600401610d52906134e4565b60405180910390fd5b610d658385612554565b610da4576040517f08c379a0000000000000000000000000000000000000000000000000000000008152600401610d9b90613478565b60405180910390fd5b610dae848461258b565b610ded576040517f08c379a0000000000000000000000000000000000000000000000000000000008152600401610de490613576565b60405180910390fd5b806002015482600401541015610e38576040517f08c379a0000000000000000000000000000000000000000000000000000000008152600401610e2f90613608565b60405180910390fd5b8060070154816006015411610e82576040517f08c379a0000000000000000000000000000000000000000000000000000000008152600401610e799061369a565b60405180910390fd5b610e8c8484611f20565b15610ecc576040517f08c379a0000000000000000000000000000000000000000000000000000000008152600401610ec39061372c565b60405180910390fd5b6040518060400160405280600881526020017f4578656375746564000000000000000000000000000000000000000000000000815250816004019080519060200190610f1992919061269e565b508060020154826004016000828254610f32919061374c565b925050819055508060030160009054906101000a900473ffffffffffffffffffffffffffffffffffffffff1673ffffffffffffffffffffffffffffffffffffffff166108fc82600201549081150290604051600060405180830381858888f19350505050158015610fa7573d6000803e3d6000fd5b5050505050565b610fb781611bca565b610ff6576040517f08c379a0000000000000000000000000000000000000000000000000000000008152600401610fed9061340c565b60405180910390fd5b600080600083815260200190815260200160002090506110163383611118565b611055576040517f08c379a000000000000000000000000000000000000000000000000000000000815260040161104c906134e4565b60405180910390fd5b60003411611098576040517f08c379a000000000000000000000000000000000000000000000000000000000815260040161108f906137f2565b60405180910390fd5b60008160020160003373ffffffffffffffffffffffffffffffffffffffff1673ffffffffffffffffffffffffffffffffffffffff1681526020019081526020016000209050348160010160008282546110f19190613812565b925050819055503482600401600082825461110c9190613812565b92505081905550505050565b60008073ffffffffffffffffffffffffffffffffffffffff1660008084815260200190815260200160002060020160008573ffffffffffffffffffffffffffffffffffffffff1673ffffffffffffffffffffffffffffffffffffffff16815260200190815260200160002060000160009054906101000a900473ffffffffffffffffffffffffffffffffffffffff1673ffffffffffffffffffffffffffffffffffffffff161415905092915050565b600080600180546111d89190613812565b9050600080600083815260200190815260200160002090508181600001819055508481600101908051906020019061121192919061269e565b506000816004018190555060008160060181905550600181600301819055508381600701908051906020019061124892919061269e565b50600060405180604001604052803373ffffffffffffffffffffffffffffffffffffffff16815260200160008152509050808260020160003373ffffffffffffffffffffffffffffffffffffffff1673ffffffffffffffffffffffffffffffffffffffff16815260200190815260200160002060008201518160000160006101000a81548173ffffffffffffffffffffffffffffffffffffffff021916908373ffffffffffffffffffffffffffffffffffffffff16021790555060208201518160010155905050826001819055503373ffffffffffffffffffffffffffffffffffffffff16837fdb8e999bdd1dd652d488bf40606ed3c1cabed934893c09a636f9ec34b25cbcd1888860405161135f9291906138a1565b60405180910390a382935050505092915050565b61137c81611bca565b6113bb576040517f08c379a00000000000000000000000000000000000000000000000000000000081526004016113b29061340c565b60405180910390fd5b600080600083815260200190815260200160002090506113db3383611118565b61141a576040517f08c379a0000000000000000000000000000000000000000000000000000000008152600401611411906134e4565b60405180910390fd5b600181600301600082825461142f919061374c565b925050819055508060020160003373ffffffffffffffffffffffffffffffffffffffff1673ffffffffffffffffffffffffffffffffffffffff168152602001908152602001600020600080820160006101000a81549073ffffffffffffffffffffffffffffffffffffffff0219169055600182016000905550505050565b6060600060015467ffffffffffffffff8111156114cd576114cc612d16565b5b60405190808252806020026020018201604052801561150657816020015b6114f3612724565b8152602001906001900390816114eb5790505b509050600080600190505b60015481116116d9576000806000838152602001908152602001600020905061153e338260000154611118565b156116c5576040518060c0016040528082600001548152602001826001018054611567906132e7565b80601f0160208091040260200160405190810160405280929190818152602001828054611593906132e7565b80156115e05780601f106115b5576101008083540402835291602001916115e0565b820191906000526020600020905b8154815290600101906020018083116115c357829003601f168201915b50505050508152602001826003015481526020018260060154815260200182600401548152602001826007018054611617906132e7565b80601f0160208091040260200160405190810160405280929190818152602001828054611643906132e7565b80156116905780601f1061166557610100808354040283529160200191611690565b820191906000526020600020905b81548152906001019060200180831161167357829003601f168201915b50505050508152508484815181106116ab576116aa613319565b5b602002602001018190525082806116c190613377565b9350505b5080806116d190613377565b915050611511565b50819250505090565b6116eb83611bca565b61172a576040517f08c379a00000000000000000000000000000000000000000000000000000000081526004016117219061340c565b60405180910390fd5b6117348383611f20565b611773576040517f08c379a000000000000000000000000000000000000000000000000000000000815260040161176a90613924565b60405180910390fd5b600080600085815260200190815260200160002090506117933385611118565b6117d2576040517f08c379a00000000000000000000000000000000000000000000000000000000081526004016117c9906134e4565b60405180910390fd5b6117dc8385612554565b61181b576040517f08c379a000000000000000000000000000000000000000000000000000000000815260040161181290613478565b60405180910390fd5b6000816005016000858152602001908152602001600020905061183f3385876108ce565b1561187f576040517f08c379a0000000000000000000000000000000000000000000000000000000008152600401611876906139b6565b60405180910390fd5b6040518060400160405280600781526020017f50656e64696e670000000000000000000000000000000000000000000000000081525080519060200120816004016040516118cd9190613a75565b604051809103902014611915576040517f08c379a000000000000000000000000000000000000000000000000000000000815260040161190c90613afe565b60405180910390fd5b821561193c5760018160060160008282546119309190613812565b92505081905550611959565b60018160070160008282546119519190613812565b925050819055505b3373ffffffffffffffffffffffffffffffffffffffff1684867f9118ecce94ef2096dbad1f072522fd5bbcc9bfcc01b4541b66817ab5e27a4ce0866040516119a19190612b52565b60405180910390a45050505050565b6060600060015467ffffffffffffffff8111156119d0576119cf612d16565b5b604051908082528060200260200182016040528015611a0957816020015b6119f6612724565b8152602001906001900390816119ee5790505b50905060005b600154811015611bc2576000806000600184611a2b9190613812565b815260200190815260200160002090506040518060c0016040528082600001548152602001826001018054611a5f906132e7565b80601f0160208091040260200160405190810160405280929190818152602001828054611a8b906132e7565b8015611ad85780601f10611aad57610100808354040283529160200191611ad8565b820191906000526020600020905b815481529060010190602001808311611abb57829003601f168201915b50505050508152602001826003015481526020018260060154815260200182600401548152602001826007018054611b0f906132e7565b80601f0160208091040260200160405190810160405280929190818152602001828054611b3b906132e7565b8015611b885780601f10611b5d57610100808354040283529160200191611b88565b820191906000526020600020905b815481529060010190602001808311611b6b57829003601f168201915b5050505050815250838381518110611ba357611ba2613319565b5b6020026020010181905250508080611bba90613377565b915050611a0f565b508091505090565b6000806000808481526020019081526020016000206000015414159050919050565b600080600080848152602001908152602001600020905060008160020160008673ffffffffffffffffffffffffffffffffffffffff1673ffffffffffffffffffffffffffffffffffffffff168152602001908152602001600020905080600101549250505092915050565b611c6085611bca565b611c9f576040517f08c379a0000000000000000000000000000000000000000000000000000000008152600401611c969061340c565b60405180910390fd5b60008060008781526020019081526020016000209050611cbf3387611118565b611cfe576040517f08c379a0000000000000000000000000000000000000000000000000000000008152600401611cf5906134e4565b60405180910390fd5b60008511611d41576040517f08c379a0000000000000000000000000000000000000000000000000000000008152600401611d3890613b90565b60405180910390fd5b600060018260060154611d549190613812565b9050600080600089815260200190815260200160002060050160008381526020019081526020016000209050818160000181905550338160010160006101000a81548173ffffffffffffffffffffffffffffffffffffffff021916908373ffffffffffffffffffffffffffffffffffffffff160217905550868160020181905550858160030160006101000a81548173ffffffffffffffffffffffffffffffffffffffff021916908373ffffffffffffffffffffffffffffffffffffffff1602179055506040518060400160405280600781526020017f50656e64696e6700000000000000000000000000000000000000000000000000815250816004019080519060200190611e6592919061269e565b5084816005019080519060200190611e7e92919061269e565b50600081600601819055506000816007018190555042816008018190555061012c42611eaa9190613812565b81600901819055508381600a019080519060200190611eca92919061269e565b50818360060181905550877fd28f39451a81db59d33c77da433396c23046543154523cb54d6908320f6aa4df83338a8a8a8a604051611f0e96959493929190613bbf565b60405180910390a25050505050505050565b600080600080858152602001908152602001600020600501600084815260200190815260200160002090504281600901541191505092915050565b611f63612724565b611f6c82611bca565b611fab576040517f08c379a0000000000000000000000000000000000000000000000000000000008152600401611fa29061340c565b60405180910390fd5b6000806000848152602001908152602001600020905060006040518060c0016040528083600001548152602001836001018054611fe7906132e7565b80601f0160208091040260200160405190810160405280929190818152602001828054612013906132e7565b80156120605780601f1061203557610100808354040283529160200191612060565b820191906000526020600020905b81548152906001019060200180831161204357829003601f168201915b50505050508152602001836003015481526020018360060154815260200183600401548152602001836007018054612097906132e7565b80601f01602080910402602001604051908101604052809291908181526020018280546120c3906132e7565b80156121105780601f106120e557610100808354040283529160200191612110565b820191906000526020600020905b8154815290600101906020018083116120f357829003601f168201915b505050505081525090508092505050919050565b6000606360008084815260200190815260200160002060030154109050919050565b61214f81611bca565b61218e576040517f08c379a000000000000000000000000000000000000000000000000000000000815260040161218590613c7a565b60405180910390fd5b600080600083815260200190815260200160002090506121ad82612124565b6121ec576040517f08c379a00000000000000000000000000000000000000000000000000000000081526004016121e390613d0c565b60405180910390fd5b6121f63383611118565b15612236576040517f08c379a000000000000000000000000000000000000000000000000000000000815260040161222d90613d9e565b60405180910390fd5b600060405180604001604052803373ffffffffffffffffffffffffffffffffffffffff16815260200160008152509050808260020160003373ffffffffffffffffffffffffffffffffffffffff1673ffffffffffffffffffffffffffffffffffffffff16815260200190815260200160002060008201518160000160006101000a81548173ffffffffffffffffffffffffffffffffffffffff021916908373ffffffffffffffffffffffffffffffffffffffff1602179055506020820151816001015590505060018260030160008282546123119190613812565b92505081905550505050565b61232682611bca565b612365576040517f08c379a000000000000000000000000000000000000000000000000000000000815260040161235c9061340c565b60405180910390fd5b61236f8183612554565b6123ae576040517f08c379a00000000000000000000000000000000000000000000000000000000081526004016123a590613478565b60405180910390fd5b6123b88282611f20565b156123f8576040517f08c379a00000000000000000000000000000000000000000000000000000000081526004016123ef9061372c565b60405180910390fd5b6000806000848152602001908152602001600020600501600083815260200190815260200160002090506040518060400160405280600781526020017f50656e64696e670000000000000000000000000000000000000000000000000081525080519060200120816004016040516124709190613a75565b6040518091039020146124b8576040517f08c379a00000000000000000000000000000000000000000000000000000000081526004016124af90613e30565b60405180910390fd5b6124c2838361258b565b612501576040517f08c379a00000000000000000000000000000000000000000000000000000000081526004016124f890613ec2565b60405180910390fd5b6040518060400160405280600681526020017f436c6f736564000000000000000000000000000000000000000000000000000081525081600401908051906020019061254e92919061269e565b50505050565b6000806000808481526020019081526020016000206005016000858152602001908152602001600020600001541415905092915050565b6000806000808581526020019081526020016000209050600081600501600085815260200190815260200160002090508060010160009054906101000a900473ffffffffffffffffffffffffffffffffffffffff1673ffffffffffffffffffffffffffffffffffffffff163373ffffffffffffffffffffffffffffffffffffffff16149250505092915050565b60405180610160016040528060008152602001600073ffffffffffffffffffffffffffffffffffffffff16815260200160008152602001600073ffffffffffffffffffffffffffffffffffffffff168152602001606081526020016060815260200160008152602001600081526020016000815260200160008152602001606081525090565b8280546126aa906132e7565b90600052602060002090601f0160209004810192826126cc5760008555612713565b82601f106126e557805160ff1916838001178555612713565b82800160010185558215612713579182015b828111156127125782518255916020019190600101906126f7565b5b509050612720919061275a565b5090565b6040518060c001604052806000815260200160608152602001600081526020016000815260200160008152602001606081525090565b5b8082111561277357600081600090555060010161275b565b5090565b6000604051905090565b600080fd5b600080fd5b6000819050919050565b61279e8161278b565b81146127a957600080fd5b50565b6000813590506127bb81612795565b92915050565b6000602082840312156127d7576127d6612781565b5b60006127e5848285016127ac565b91505092915050565b600081519050919050565b600082825260208201905092915050565b6000819050602082019050919050565b6128238161278b565b82525050565b600073ffffffffffffffffffffffffffffffffffffffff82169050919050565b600061285482612829565b9050919050565b61286481612849565b82525050565b600081519050919050565b600082825260208201905092915050565b60005b838110156128a4578082015181840152602081019050612889565b838111156128b3576000848401525b50505050565b6000601f19601f8301169050919050565b60006128d58261286a565b6128df8185612875565b93506128ef818560208601612886565b6128f8816128b9565b840191505092915050565b60006101608301600083015161291c600086018261281a565b50602083015161292f602086018261285b565b506040830151612942604086018261281a565b506060830151612955606086018261285b565b506080830151848203608086015261296d82826128ca565b91505060a083015184820360a086015261298782826128ca565b91505060c083015161299c60c086018261281a565b5060e08301516129af60e086018261281a565b506101008301516129c461010086018261281a565b506101208301516129d961012086018261281a565b506101408301518482036101408601526129f382826128ca565b9150508091505092915050565b6000612a0c8383612903565b905092915050565b6000602082019050919050565b6000612a2c826127ee565b612a3681856127f9565b935083602082028501612a488561280a565b8060005b85811015612a845784840389528151612a658582612a00565b9450612a7083612a14565b925060208a01995050600181019050612a4c565b50829750879550505050505092915050565b60006020820190508181036000830152612ab08184612a21565b905092915050565b612ac181612849565b8114612acc57600080fd5b50565b600081359050612ade81612ab8565b92915050565b600080600060608486031215612afd57612afc612781565b5b6000612b0b86828701612acf565b9350506020612b1c868287016127ac565b9250506040612b2d868287016127ac565b9150509250925092565b60008115159050919050565b612b4c81612b37565b82525050565b6000602082019050612b676000830184612b43565b92915050565b60008060408385031215612b8457612b83612781565b5b6000612b92858286016127ac565b9250506020612ba3858286016127ac565b9150509250929050565b600061016083016000830151612bc6600086018261281a565b506020830151612bd9602086018261285b565b506040830151612bec604086018261281a565b506060830151612bff606086018261285b565b5060808301518482036080860152612c1782826128ca565b91505060a083015184820360a0860152612c3182826128ca565b91505060c0830151612c4660c086018261281a565b5060e0830151612c5960e086018261281a565b50610100830151612c6e61010086018261281a565b50610120830151612c8361012086018261281a565b50610140830151848203610140860152612c9d82826128ca565b9150508091505092915050565b60006020820190508181036000830152612cc48184612bad565b905092915050565b60008060408385031215612ce357612ce2612781565b5b6000612cf185828601612acf565b9250506020612d02858286016127ac565b9150509250929050565b600080fd5b600080fd5b7f4e487b7100000000000000000000000000000000000000000000000000000000600052604160045260246000fd5b612d4e826128b9565b810181811067ffffffffffffffff82111715612d6d57612d6c612d16565b5b80604052505050565b6000612d80612777565b9050612d8c8282612d45565b919050565b600067ffffffffffffffff821115612dac57612dab612d16565b5b612db5826128b9565b9050602081019050919050565b82818337600083830152505050565b6000612de4612ddf84612d91565b612d76565b905082815260208101848484011115612e0057612dff612d11565b5b612e0b848285612dc2565b509392505050565b600082601f830112612e2857612e27612d0c565b5b8135612e38848260208601612dd1565b91505092915050565b60008060408385031215612e5857612e57612781565b5b600083013567ffffffffffffffff811115612e7657612e75612786565b5b612e8285828601612e13565b925050602083013567ffffffffffffffff811115612ea357612ea2612786565b5b612eaf85828601612e13565b9150509250929050565b612ec28161278b565b82525050565b6000602082019050612edd6000830184612eb9565b92915050565b600081519050919050565b600082825260208201905092915050565b6000819050602082019050919050565b600060c083016000830151612f27600086018261281a565b5060208301518482036020860152612f3f82826128ca565b9150506040830151612f54604086018261281a565b506060830151612f67606086018261281a565b506080830151612f7a608086018261281a565b5060a083015184820360a0860152612f9282826128ca565b9150508091505092915050565b6000612fab8383612f0f565b905092915050565b6000602082019050919050565b6000612fcb82612ee3565b612fd58185612eee565b935083602082028501612fe785612eff565b8060005b8581101561302357848403895281516130048582612f9f565b945061300f83612fb3565b925060208a01995050600181019050612feb565b50829750879550505050505092915050565b6000602082019050818103600083015261304f8184612fc0565b905092915050565b61306081612b37565b811461306b57600080fd5b50565b60008135905061307d81613057565b92915050565b60008060006060848603121561309c5761309b612781565b5b60006130aa868287016127ac565b93505060206130bb868287016127ac565b92505060406130cc8682870161306e565b9150509250925092565b600080600080600060a086880312156130f2576130f1612781565b5b6000613100888289016127ac565b9550506020613111888289016127ac565b945050604061312288828901612acf565b935050606086013567ffffffffffffffff81111561314357613142612786565b5b61314f88828901612e13565b925050608086013567ffffffffffffffff8111156131705761316f612786565b5b61317c88828901612e13565b9150509295509295909350565b600060c0830160008301516131a1600086018261281a565b50602083015184820360208601526131b982826128ca565b91505060408301516131ce604086018261281a565b5060608301516131e1606086018261281a565b5060808301516131f4608086018261281a565b5060a083015184820360a086015261320c82826128ca565b9150508091505092915050565b600060208201905081810360008301526132338184613189565b905092915050565b600082825260208201905092915050565b7f436c756220646f6573206e6f7420657869737400000000000000000000000000600082015250565b600061328260138361323b565b915061328d8261324c565b602082019050919050565b600060208201905081810360008301526132b181613275565b9050919050565b7f4e487b7100000000000000000000000000000000000000000000000000000000600052602260045260246000fd5b600060028204905060018216806132ff57607f821691505b60208210811415613313576133126132b8565b5b50919050565b7f4e487b7100000000000000000000000000000000000000000000000000000000600052603260045260246000fd5b7f4e487b7100000000000000000000000000000000000000000000000000000000600052601160045260246000fd5b60006133828261278b565b91507fffffffffffffffffffffffffffffffffffffffffffffffffffffffffffffffff8214156133b5576133b4613348565b5b600182019050919050565b7f74686520636c756220646f6573206e6f74206578697374000000000000000000600082015250565b60006133f660178361323b565b9150613401826133c0565b602082019050919050565b60006020820190508181036000830152613425816133e9565b9050919050565b7f5468652070726f706f73616c20646f6573206e6f742065786973740000000000600082015250565b6000613462601b8361323b565b915061346d8261342c565b602082019050919050565b6000602082019050818103600083015261349181613455565b9050919050565b7f596f7520617265206e6f742061206d656d626572206f662074686520636c7562600082015250565b60006134ce60208361323b565b91506134d982613498565b602082019050919050565b600060208201905081810360008301526134fd816134c1565b9050919050565b7f4f6e6c79207468652063726561746f72206f66207468652070726f706f73616c60008201527f2063616e20657865637574652069740000000000000000000000000000000000602082015250565b6000613560602f8361323b565b915061356b82613504565b604082019050919050565b6000602082019050818103600083015261358f81613553565b9050919050565b7f54686520616d6f756e7420657863656564732074686520706f6f6c206f66207460008201527f686520636c756200000000000000000000000000000000000000000000000000602082015250565b60006135f260278361323b565b91506135fd82613596565b604082019050919050565b60006020820190508181036000830152613621816135e5565b9050919050565b7f5468652070726f706f73616c20686173206e6f74206265656e20617070726f7660008201527f6564000000000000000000000000000000000000000000000000000000000000602082015250565b600061368460228361323b565b915061368f82613628565b604082019050919050565b600060208201905081810360008301526136b381613677565b9050919050565b7f596f752063616e2774206265666f72652074686520566f74696e67206465616460008201527f6c696e6500000000000000000000000000000000000000000000000000000000602082015250565b600061371660248361323b565b9150613721826136ba565b604082019050919050565b6000602082019050818103600083015261374581613709565b9050919050565b60006137578261278b565b91506137628361278b565b92508282101561377557613774613348565b5b828203905092915050565b7f596f75206d7573742073656e642045564d4f5320746f20636f6e74726962757460008201527f6500000000000000000000000000000000000000000000000000000000000000602082015250565b60006137dc60218361323b565b91506137e782613780565b604082019050919050565b6000602082019050818103600083015261380b816137cf565b9050919050565b600061381d8261278b565b91506138288361278b565b9250827fffffffffffffffffffffffffffffffffffffffffffffffffffffffffffffffff0382111561385d5761385c613348565b5b828201905092915050565b60006138738261286a565b61387d818561323b565b935061388d818560208601612886565b613896816128b9565b840191505092915050565b600060408201905081810360008301526138bb8185613868565b905081810360208301526138cf8184613868565b90509392505050565b7f566f74696e6720506572696f642046696e697368656400000000000000000000600082015250565b600061390e60168361323b565b9150613919826138d8565b602082019050919050565b6000602082019050818103600083015261393d81613901565b9050919050565b7f596f75206861766520616c726561647920766f746564206f6e2074686973207060008201527f726f706f73616c00000000000000000000000000000000000000000000000000602082015250565b60006139a060278361323b565b91506139ab82613944565b604082019050919050565b600060208201905081810360008301526139cf81613993565b9050919050565b600081905092915050565b60008190508160005260206000209050919050565b60008154613a03816132e7565b613a0d81866139d6565b94506001821660008114613a285760018114613a3957613a6c565b60ff19831686528186019350613a6c565b613a42856139e1565b60005b83811015613a6457815481890152600182019150602081019050613a45565b838801955050505b50505092915050565b6000613a8182846139f6565b915081905092915050565b7f5468652070726f706f73616c206973206e6f206c6f6e6765722070656e64696e60008201527f6700000000000000000000000000000000000000000000000000000000000000602082015250565b6000613ae860218361323b565b9150613af382613a8c565b604082019050919050565b60006020820190508181036000830152613b1781613adb565b9050919050565b7f54686520616d6f756e74206f66207468652070726f706f73616c206d7573742060008201527f62652067726561746572207468616e2030000000000000000000000000000000602082015250565b6000613b7a60318361323b565b9150613b8582613b1e565b604082019050919050565b60006020820190508181036000830152613ba981613b6d565b9050919050565b613bb981612849565b82525050565b600060c082019050613bd46000830189612eb9565b613be16020830188613bb0565b613bee6040830187612eb9565b613bfb6060830186613bb0565b8181036080830152613c0d8185613868565b905081810360a0830152613c218184613868565b9050979650505050505050565b7f54686520636c756220646f6573206e6f74206578697374000000000000000000600082015250565b6000613c6460178361323b565b9150613c6f82613c2e565b602082019050919050565b60006020820190508181036000830152613c9381613c57565b9050919050565b7f54686520636c75622069732066756c6c2c206e6f206d6f7265206d656d62657260008201527f732063616e206265206164646564000000000000000000000000000000000000602082015250565b6000613cf6602e8361323b565b9150613d0182613c9a565b604082019050919050565b60006020820190508181036000830152613d2581613ce9565b9050919050565b7f596f752061726520616c72656164792061206d656d626572206f66207468652060008201527f636c756200000000000000000000000000000000000000000000000000000000602082015250565b6000613d8860248361323b565b9150613d9382613d2c565b604082019050919050565b60006020820190508181036000830152613db781613d7b565b9050919050565b7f5468652070726f706f73616c206973206e6f7420696e2070656e64696e67207360008201527f7461747573000000000000000000000000000000000000000000000000000000602082015250565b6000613e1a60258361323b565b9150613e2582613dbe565b604082019050919050565b60006020820190508181036000830152613e4981613e0d565b9050919050565b7f4f6e6c79207468652070726f706f73616c2063726561746f722063616e20636c60008201527f6f7365207468652070726f706f73616c00000000000000000000000000000000602082015250565b6000613eac60308361323b565b9150613eb782613e50565b604082019050919050565b60006020820190508181036000830152613edb81613e9f565b905091905056fea264697066735822122085c94bbdfdc63b7a685de683b727fbcecda6759bb04f8566c3f86e1d5dc29f2264736f6c634300080a0033",
  "linkReferences": {},
  "deployedLinkReferences": {}
}